:100000000C9453000C945C030C9435030C947B000B
:100010000C947B000C947B000C947B000C947B0074
:100020000C947B000C947B000C947B000C947B0064
:100030000C947B000C947B000C947B000C947B0054
:100040000C94EB020C947B000C94B9020C94930278
:100050000C947B000C947B000C947B000C947B0034
:100060000C947B000C947B0000000000250028000D
:100070002B0000000000240027002A0004040404D0
:100080000404040402020202020203030303030342
:10009000010204081020408001020408102001021F
:1000A000040810200E0511241FBECFEFD8E0DEBFDC
:1000B000CDBF11E0A0E0B1E0E6E8FAE002C00590B3
:1000C0000D92AC31B107D9F721E0ACE1B1E001C04C
:1000D0001D92AC3CB207E1F710E0C3E5D0E004C0EC
:1000E0002197FE010E943B05C235D107C9F70E9446
:1000F00083030C9441050C940000AF92BF92CF9201
:10010000DF92EF92FF920F931F93CF93DF936C01D7
:100110007B018B01040F151FEB015E01AE18BF08B8
:10012000C017D10759F06991D601ED91FC9101906A
:10013000F081E02DC6010995892B79F7C501DF9182
:10014000CF911F910F91FF90EF90DF90CF90BF90D4
:10015000AF900895FC01538D448D252F30E0842FFE
:1001600090E0821B930B541710F0CF9608950197DF
:100170000895FC01918D828D981761F0A28DAE0FCC
:10018000BF2FB11D5D968C91928D9F5F9F73928F53
:1001900090E008958FEF9FEF0895FC01918D828D7F
:1001A000981731F0828DE80FF11D858D90E008954C
:1001B0008FEF9FEF0895FC01918D228D892F90E0A4
:1001C000805C9F4F821B91098F739927089585E268
:1001D00091E00E94DB0021E0892B09F420E0822FCE
:1001E000089580E090E0892B29F00E94E7008111BA
:1001F0000C9400000895FC01A48DA80FB92FB11D27
:10020000A35ABF4F2C91848D90E001968F7399274C
:10021000848FA689B7892C93A089B1898C9183702A
:1002200080648C93938D848D981306C00288F38923
:10023000E02D80818F7D80830895EF92FF920F9350
:100240001F93CF93DF93EC0181E0888F9B8D8C8D82
:1002500098131AC0E889F989808185FF15C09FB776
:10026000F894EE89FF896083E889F9898081837039
:10027000806480839FBF81E090E0DF91CF911F91E8
:100280000F91FF90EF900895F62E0B8D10E00F5F09
:100290001F4F0F731127E02E8C8D8E110CC00FB6DF
:1002A00007FCFACFE889F989808185FFF5CFCE0177
:1002B0000E94FB00F1CFEB8DEC0FFD2FF11DE35AF7
:1002C000FF4FF0829FB7F8940B8FEA89FB898081FA
:1002D0008062CFCFCF93DF93EC01888D8823B9F074
:1002E000AA89BB89E889F9898C9185FD03C0808141
:1002F00086FD0DC00FB607FCF7CF8C9185FFF2CFBE
:10030000808185FFEDCFCE010E94FB00E9CFDF9118
:10031000CF910895CF93DF9390E0FC01E057FF4F1A
:10032000249184589F4FFC0184918823D1F090E060
:10033000880F991FFC01EE58FF4FA591B491FC0165
:10034000E859FF4FC591D49161110EC09FB7F89441
:100350008C91E22FE0958E238C932881E223E88311
:100360009FBFDF91CF9108958FB7F894EC91E22B66
:10037000EC938FBFF6CF3FB7F89480912101909115
:100380002201A0912301B091240126B5A89B05C0AC
:100390002F3F19F00196A11DB11D3FBFBA2FA92F04
:1003A000982F8827BC01CD01620F711D811D911D01
:1003B00042E0660F771F881F991F4A95D1F708956D
:1003C0008F929F92AF92BF92CF92DF92EF92FF9265
:1003D0004B015C010E94BB016B017C010E94BB01CF
:1003E0006C197D098E099F09683E7340810591054E
:1003F000A8F321E0821A9108A108B10888EEC80E7E
:1004000083E0D81EE11CF11C81149104A104B10405
:1004100029F7FF90EF90DF90CF90BF90AF909F9023
:100420008F9008950895809104019091050196950B
:1004300087959093050180930401880F880F880F9A
:100440008BB9809104019091050135E096958795CF
:100450003A95E1F785B98091C6019091C70101965F
:100460009093C7018093C601079741F41092C90188
:100470001092C8011092C7011092C6010895CF933F
:10048000DF93CDB7DEB7A1970FB6F894DEBF0FBEEE
:10049000CDBF8091CA019091CB0184309105F0F5D8
:1004A00001969093CB018093CA0119A2805D88A325
:1004B000BE01605E7F4FFB0101900020E9F731979C
:1004C000AF01461B570B85E291E00E947D0042E0A0
:1004D00050E068E171E085E291E00E947D001092B9
:1004E000C5011092C4011092C3011092C201109272
:1004F000C9011092C8011092C7011092C60181E093
:1005000090E09093050180930401A1960FB6F894B2
:10051000DEBF0FBECDBFDF91CF9108951092CB010A
:100520001092CA01DCCF1F920F920FB60F921124C6
:100530002F933F934F935F936F937F938F939F93EB
:10054000AF93BF93EF93FF9385E291E00E94FB008E
:10055000FF91EF91BF91AF919F918F917F916F919B
:100560005F914F913F912F910F900FBE0F901F9071
:1005700018951F920F920FB60F9211242F938F93FD
:100580009F93EF93FF93E0913501F09136018081C5
:10059000E0913B01F0913C0182FD1BC09081809174
:1005A0003E018F5F8F7320913F01821741F0E091F0
:1005B0003E01F0E0EB5DFE4F958F80933E01FF9191
:1005C000EF919F918F912F910F900FBE0F901F90E1
:1005D00018958081F4CF1F920F920FB60F921124BD
:1005E0002F933F938F939F93AF93BF9380911D0160
:1005F00090911E01A0911F01B091200130911C012A
:1006000023E0230F2D3758F50196A11DB11D20932E
:100610001C0180931D0190931E01A0931F01B093B4
:1006200020018091210190912201A0912301B0919C
:1006300024010196A11DB11D8093210190932201F7
:10064000A0932301B0932401BF91AF919F918F910B
:100650003F912F910F900FBE0F901F90189526E895
:10066000230F0296A11DB11DD2CF1F920F920FB67C
:100670000F9211242F933F934F935F936F937F9328
:100680008F939F93AF93BF93EF93FF93E0910201FA
:10069000F09103010995FF91EF91BF91AF919F9167
:1006A0008F917F916F915F914F913F912F910F901B
:1006B0000FBE0F901F9018951F920F920FB60F92BA
:1006C00011242F933F934F935F936F937F938F9357
:1006D0009F93AF93BF93EF93FF93E0910001F0914D
:1006E00001010995FF91EF91BF91AF919F918F917A
:1006F0007F916F915F914F913F912F910F900FBE1E
:100700000F901F901895789484B5826084BD84B54D
:10071000816084BD85B5826085BD85B5816085BDFC
:1007200080916E00816080936E00109281008091B4
:10073000810082608093810080918100816080933C
:100740008100809180008160809380008091B10061
:1007500084608093B1008091B00081608093B0008C
:1007600080917A00846080937A0080917A00826020
:1007700080937A0080917A00816080937A008091E2
:100780007A00806880937A001092C100E091350170
:10079000F091360182E08083E0913101F0913201E5
:1007A0001082E0913301F09134018FEC808310923C
:1007B0003D01E0913901F0913A0186E08083E091BA
:1007C0003701F0913801808180618083E0913701A9
:1007D000F0913801808188608083E0913701F09149
:1007E0003801808180688083E0913701F091380181
:1007F00080818F7D808361E088E00E948A0161E0D2
:1008000089E00E948A0161E08AE00E948A018FEFFC
:100810008AB988E08BB960E082E00E948A018FE3A8
:1008200092E09093010180930001809169008360C0
:1008300080936900E89AF0E1DF2EC0E0D0E001E0AB
:1008400010E0A2E0EA2EF12C64EF71E080E090E08D
:100850000E94E0018091CA019091CB018230910504
:1008600009F455C068F4009739F10197C1F1209758
:1008700059F30E94E700882339F30E940000E4CF77
:100880008330910509F465C0049789F78091C80108
:100890009091C9018330910508F072C00196909340
:1008A000C9018093C8018091040190910501880FCE
:1008B000991F880F991F3DC081E02091C20130919E
:1008C000C301232B09F080E0282F30E03093C301CF
:1008D0002093C201880F880F880F8BB9C8CF8091F1
:1008E000C4019091C50101969093C5018093C40104
:1008F000880F880F880F8BB98091C4019091C50132
:1009000075E0969587957A95E1F785B9B0CF809196
:10091000C8019091C90187309105C0F40196909368
:10092000C9018093C8018091040190910501880F4D
:10093000991F9093050180930401880F880F880FF9
:100940008BB98091040190910501DACF0E941302C6
:100950008ECF8091C8019091C9018730910568F4CC
:1009600001969093C9018093C801809104019091F0
:100970000501880F991F0196DCCF0E94130277CFE3
:100980008091C6019091C701892BA9F4F0920501CD
:10099000E0920401DBB8809104019091050145E0EB
:1009A000969587954A95E1F785B966E970E080E00C
:1009B00090E00E94E0018091040190910501880F70
:1009C000991F880F991F9093050180930401880F48
:1009D000880F880F8BB9809104019091050135E053
:1009E000969587953A95E1F785B98091C6019091E2
:1009F000C70101969093C7018093C601039709F040
:100A000036CF10930501009304011092C901109292
:100A1000C8011092C7011092C60129CFE5E2F1E0AA
:100A20001382128288EE93E0A0E0B0E08483958385
:100A3000A683B7838AE091E09183808385EC90E080
:100A40009587848784EC90E09787868780EC90E098
:100A5000918B808B81EC90E0938B828B82EC90E089
:100A6000958B848B86EC90E0978B868B118E128E03
:100A7000138E148E0895EE0FFF1F0590F491E02D54
:060A80000994F894FFCF79
:100A8600120212020100000000001D017D00AA00F2
:0C0A96006A01DB00B900CD000D0A000071
:00000001FF
