:04000000C4EF3FF01A
:04001400E8EF3FF0E2
:107F8800010E606F060ED56ECB0ED66EF30ED76E51
:107F9800C168956A836A936AC00EF26E040EF16E28
:107FA800F28AD58E010E836E83BCE0EF3FF083B07A
:107FB800E4EF3FF0D8EF3FF0000E606FDEEF3FF0E8
:107FC800010E606FDEEF3FF0D59EF29AF29460A149
:107FD800F8EF3FF0FCEF3FF0CB0ED66EF30ED76E06
:107FE800F28A860ED56E110083428342F0EF3FF08D
:087FF80083468346F0EF3FF0E1
:020000040030CA
:04000000000C1F1EB3
:020005008185F3
:060008000FC00FE00F40E5
:00000001FF
